:100000000C9458000C9480000C9480000C94800098
:100010000C9480000C9480000C9480000C94800060
:100020000C9480000C9480000C9480000C94800050
:100030000C9480000C9480000C9480000C94800040
:100040000C94A6010C9480000C9416020C94F00100
:100050000C9480000C9480000C9480000C94800020
:100060000C9480000C948000000000002300260007
:10007000290004040404040404040202020202022B
:10008000030303030303010204081020408001025C
:1000900004081020010204081020000000080002DB
:1000A000010000030407000000000000000014032A
:1000B00011241FBECFEFD8E0DEBFCDBF11E0A0E01E
:1000C000B1E0ECE9F6E002C005900D92AE31B10767
:1000D000D9F721E0AEE1B1E001C01D92A43CB20726
:1000E000E1F710E0C8E5D0E004C02197FE010E94CE
:1000F0004103C735D107C9F70E9448020C944C034D
:100100000C940000CF92DF92EF92FF920F931F9317
:10011000CF93DF936C017A018B01C0E0D0E0CE1564
:10012000DF0581F0D8016D918D01D601ED91FC9133
:100130000190F081E02DC6010995892B11F02196DF
:10014000EECF7E01C701DF91CF911F910F91FF90FC
:10015000EF90DF90CF900895089580E090E00895AB
:10016000FC01538D448D252F30E0842F90E0821BBD
:10017000930B541710F0CF96089501970895FC0142
:10018000918D828D981761F0828DDF01A80FB11DCE
:100190005D968C91928D9F5F9F73928F90E00895F2
:1001A0008FEF9FEF0895FC01918D828D981731F0AC
:1001B000828DE80FF11D858D90E008958FEF9FEF00
:1001C0000895FC01918D228D892F90E0805C9F4FD6
:1001D000821B91098F739927089587E291E00E940D
:1001E000E10021E0892B09F420E0822F0895FC0131
:1001F000848DDF01A80FB11DA35ABF4F2C91848DB0
:1002000090E001968F739927848FA689B7892C93E4
:10021000A089B1898C91837080648C93938D848D37
:10022000981306C00288F389E02D80818F7D80833A
:100230000895EF92FF920F931F93CF93DF93EC01FA
:1002400081E0888F9B8D8C8D981305C0E889F98992
:10025000808185FD26C0F62E0B8D10E00F5F1F4FAD
:100260000F731127E02E8C8DE8120CC00FB607FC1F
:10027000FACFE889F989808185FFF5CFCE010E9408
:10028000F700F1CF8B8DFE01E80FF11DE35AFF4F10
:10029000F0829FB7F8940B8FEA89FB898081806296
:1002A0000AC09FB7F894EE89FF896083E889F989CD
:1002B00080818370806480839FBF81E090E0DF91C4
:1002C000CF911F910F91FF90EF900895CF93DF93FF
:1002D000EC01888D8823C9F0EA89FB89808185FD3E
:1002E00005C0A889B9898C9186FD0FC00FB607FC9F
:1002F000F5CF808185FFF2CFA889B9898C9185FFE0
:10030000EDCFCE010E94F700E7CFDF91CF910895A6
:1003100080E090E0892B29F00E94ED0081110C947F
:1003200000000895009769F0FC0101900020E9F7B2
:100330003197AF01481B590BBC0187E291E00C9447
:10034000820080E090E008950E9447031F920F9280
:100350000FB60F9211242F933F938F939F93AF93D8
:10036000BF938091230190912401A0912501B09128
:1003700026013091220123E0230F2D3720F401962E
:10038000A11DB11D05C026E8230F0296A11DB11DB8
:10039000209322018093230190932401A0932501AF
:1003A000B093260180911E0190911F01A091200120
:1003B000B09121010196A11DB11D80931E01909362
:1003C0001F01A0932001B0932101BF91AF919F9194
:1003D0008F913F912F910F900FBE0F901F90189506
:1003E0001F920F920FB60F9211242F933F934F93AA
:1003F0005F936F937F938F939F93AF93BF93EF938D
:10040000FF9387E291E00E94F700FF91EF91BF9187
:10041000AF919F918F917F916F915F914F913F919C
:100420002F910F900FBE0F901F9018951F920F9253
:100430000FB60F9211242F938F939F93EF93FF93F7
:10044000E0913701F09138018081E0913D01F09118
:100450003E0182FD12C09081809140018F5F8F73B9
:1004600020914101821751F0E0914001F0E0E95DF7
:10047000FE4F958F8093400101C08081FF91EF91E5
:100480009F918F912F910F900FBE0F901F901895F5
:10049000789484B5826084BD84B5816084BD85B55F
:1004A000826085BD85B5816085BD80916E0081606B
:1004B00080936E0010928100809181008260809311
:1004C0008100809181008160809381008091800013
:1004D0008160809380008091B10084608093B1003E
:1004E0008091B00081608093B00080917A00846038
:1004F00080937A0080917A00826080937A00809164
:100500007A00816080937A0080917A00806880937D
:100510007A001092C100E0913701F091380182E039
:100520008083E0913301F09134011082E091350134
:10053000F09136018FEC808310923F01E0913B01F6
:10054000F0913C0186E08083E0913901F0913A011D
:10055000808180618083E0913901F0913A0180814E
:1005600088608083E0913901F0913A018081806850
:100570008083E0913901F0913A0180818F7D808301
:10058000C7EAD0E003E910E09FE7E92E90E0F92EFA
:10059000FE018491F8012491F70134913323C9F1CC
:1005A000882349F18330A1F038F48130B9F08230EA
:1005B00011F594B59F7D14C08730A1F08830B1F05B
:1005C0008430C9F4909180009F7D9093800013C087
:1005D000809180008F77809380000DC094B59F77C5
:1005E00094BD09C09091B0009F7703C09091B00076
:1005F0009F7D9093B000E32FF0E0EE0FFF1FE859CE
:10060000FF4FA591B4918C91822319F082E191E082
:1006100002C08AE191E00E94920187E191E00E948C
:1006200092010E948801B4CFE7E2F1E013821282C6
:1006300088EE93E0A0E0B0E084839583A683B7833F
:1006400084E091E09183808385EC90E095878487B6
:1006500084EC90E09787868780EC90E0918B808B8C
:1006600081EC90E0938B828B82EC90E0958B848B75
:1006700086EC90E0978B868B118E128E138E148EE3
:100680000895EE0FFF1F0590F491E02D099481E08D
:0C06900090E0F8940C944C03F894FFCF19
:10069C000000000019018200B0006601E100BF00FB
:0E06AC00D30048494748000D0A004C4F570044
:00000001FF
